:040000008031132810
:10000800803120007F08F2000B190B11911E102877
:100018008E319326200091127208FF00090080316A
:100028001528F801F901FA01E601E701E801E901FB
:10003800EA01EB01A03084000130850040308D31A9
:10004800EF258031603084008730850020308600BD
:100058000130870040308D31E92520008031342877
:10006800031020008D1803140030093D2100A6005C
:10007800A701A635A70DA635A70DA635A70D031010
:1000880020000D1803140030093D2100A800A90123
:10009800A835A90DA835A90D031020008D19031442
:1000A8000030093D2100AA00AB01AA35AB0D0310B1
:1000B80020000D1903140030093D21002A07AC0067
:1000C8002B0803182B0AAD0028082C07AE002908B6
:1000D8002D3DAF0026082E07B00027082F3DB100A0
:1000E8003008013EB2000030313DB300B209B30917
:1000F800B20A0319B30A3208103EB4000030333D87
:10010800B5003408DA003508DB00DE018E310B2635
:10011800803120008C100C118C118C1220302000A2
:10012800A5000030A600B630863187268031003A17
:1001380003199228B6308E31B22680317408210016
:10014800DD007308DC005C08FF3EB63E86008701D0
:10015800213001060319922800302000AA009030AF
:10016800AB00B6308631D02680312100A6002608A3
:10017800D6000130E5000030E600003066020430A9
:10018800031965020318E82800302000AA009030FF
:10019800AB0000308631D02680312100DF00A60078
:1001A8006508D63E86008701260881005F08031986
:1001B800E8280130E5070030E63D003066020430EB
:1001C80003196502031CC8285608A6002608E4007F
:1001D8005708A6002608E7001330F3009030F40013
:1001E80064088E31D726803173087404031D3329BF
:1001F8002100E001E1016608803AA600803026026D
:10020800031D082902306502031C1729210067080D
:100218008531B5258031200023082100E100200028
:1002280022082100E00021005B086106031D1E2949
:100238005A086006031D232920008C162D29600802
:100248006104031D2B29DE01DE0A2000912820000D
:100258008C1200308C1A01302100DE009228033005
:10026800F3009030F400210064088E31D7268031E5
:1002780073087404031D572903308D31F525803127
:1002880021006708A6000030A70026082000DF002C
:10029800210027082000E0000030E100E200823160
:1002A8009E22803192280E30F3009030F400210015
:1002B80064088E31D726803173087404031D7B29A6
:1002C8000E308D31F525803121006708A6000030F9
:1002D800A70026082000DF00210027082000E000F2
:1002E8000030E100E20083314F2380319228093049
:1002F800F3009030F400210064088E31D726803155
:1003080073087404031D92282100E201E3016708C1
:100318008E31B2268031740821006302031D9629AC
:10032800730862020318922862086707A600260865
:100338008600870101088D31F525803101302100C3
:10034800E2070030E33D8B2920002308A900240898
:10035800AA002508AB0003102A0D2B0DAC002C08B1
:10036800AF002608A9002708AA002808AB00031038
:100378002A0D2B0DAC002C08AE002F080319D0292C
:100388002E082F020318D7292F03FF3A2E07A9009A
:1003980019302902031CD7292608A3002708A4001E
:1003A8002808A50008002E08031908002F082E02A7
:1003B8000318E6292E03FF3A2F07A900193029024E
:1003C800031808000630A9002908AD00A51BAD17C1
:1003D800A81B2D17A417FF30A305FF30A405003074
:1003E800A505A717FF30A605FF30A7050030A8050B
:1003F8002E082F020318222A0130A635A70DA80DB2
:10040800890B012A0130AE022E082F0603191D2A76
:100418000130AD022D08073903191D2A002A0130C1
:10042800A536A40CA30C890B142A0130A9002908AD
:10043800AF072F082E060319472A132A2F082E0262
:100448000318472A0130A335A40DA50D890B272AC7
:100458000130AF022E082F060319432A0130AD02DE
:100468002D0807390319432A262A0130A836A70C74
:10047800A60C890B3A2A0130A9002908AE072F08D3
:100488002E06031D392AAD1F592AFF30A306FF3057
:10049800A406FF30A5060130A30700300318013079
:1004A800A407003003180130A5072D1F6B2AFF3061
:1004B800A606FF30A706FF30A8060130A6070030C1
:1004C80003180130A707003003180130A807AD0151
:1004D8002308A6072408A73D2508A83DA81F862AA3
:1004E800FF30A606FF30A706FF30A8060130A60792
:1004F800003003180130A707003003180130A8079F
:10050800AD01AD0A2608F3002708F4002808F50015
:100518002F08A9002908F6002D08AA002A08F700C4
:100528008631202673082000A3007408A4007508EB
:10053800A50008002100A201A30120006008D9003D
:100548005F08D80087311927823120005908210017
:10055800A100200058082100A00021002008EC3E3E
:100568002000E300FF302100213D2000E400640862
:1005780021002302031DC42A20006308210022024F
:1005880003180800A401A5012508803A2000E3000B
:1005980080306302031DD32A04302100240203188B
:1005A800B12A210024082000E3000230E335FF3E91
:1005B800031DDA2A6335403E860001308700403F3C
:1005C800E400413FE500641CEC2A20000C14EE2AEC
:1005D80020000C10210024082000E3000230E3353D
:1005E800FF3E031DF32A6335023E403E860001307C
:1005F8008700403FE400413FE500641C062B2000D3
:100608000C16082B20000C12210024082000E300FF
:100618000230E335FF3E031D0D2B6335043E403E9B
:10062800860001308700403FE400413FE500641C3C
:10063800202B20008E14222B20008E10210024084D
:100648002000E3000230E335FF3E031D272B63350E
:10065800063E403E860001308700403FE400413FAF
:10066800E500641C3A2B20000E153C2B20000E11CF
:100678000830E400C930E300E30B402BE40B402BC7
:10068800003201302100A2070030A33D0130A40749
:100698000030A53DC82A2100A201A301200060085E
:1006A800D9005F08D80087311927833120005908FD
:1006B8002100A100200058082100A00021002008E6
:1006C800EC3E2000E300FF302100213D2000E40043
:1006D800640821002302031D752B200063082100F4
:1006E800220203180800A401A5012508803A200069
:1006F800E30080306302031D842B043021002402B0
:100708000318622B210024082000E3000230E3359F
:10071800FF3E031D8B2B6335203E8600013087008A
:10072800403FE400413FE500641C9D2B20000C1471
:100738009F2B20000C10210024082000E300023029
:10074800E335FF3E031DA42B6335023E203E8600A1
:1007580001308700403FE400413FE500641CB72BAF
:1007680020000C16B92B20000C12210024082000B0
:10077800E3000230E335FF3E031DBE2B6335043E24
:10078800203E860001308700403FE400413FE500FD
:10079800641CD12B20008E14D32B20008E10210036
:1007A80024082000E3000230E335FF3E031DD82B68
:1007B8006335063E203E860001308700403FE40056
:1007C800413FE500641CEB2B20000E15ED2B2000AB
:1007D8000E110830E400C930E300E30BF12BE40B01
:1007E800F12B003201302100A2070030A33D013077
:1007F800A4070030A53D792B20002C08AF002D0858
:10080800B0002E08B1000310300D310DB2003208CF
:10081800B7003708031D172C0030A9000030AA00C4
:100828000030AB0008002908AF002A08B0002B08E8
:10083800B1000310300D310DB2003208B80038088D
:10084800031D2D2C0030A9000030AA000030AB0099
:1008580008000030B4000030B5000030B600893020
:100868003807AF002F08B7022C08AF002D08B000DA
:100878002E08B1001030B136B00CAF0C890B3F2CEC
:100888002F08B2003208B8002908AF002A08B000C3
:100898002B08B1001030B136B00CAF0C890B4F2CBF
:1008A8002F08B2003208B8068030AF002F08B8050C
:1008B800AD17FF30AC05FF30AD050030AE05AA1707
:1008C800FF30A905FF30AA050030AB051830AF008E
:1008D8002F08B3000130B435B50DB60D890B6F2C58
:1008E8002B082E02031D7E2C2A082D02031D7E2CA8
:1008F80029082C02031C872C2908AC022A08AD3BC6
:100908002B08AE3B34140130AC35AD0DAE0D890B60
:10091800882C0130B302031D6E2C3408F30035080F
:10092800F4003608F5003708AF002F08F60038083D
:10093800B0003008F7008631202673082000A9008F
:100948007408AA007508AB00080020003908BD002B
:100958003A08BE003B08BF0003103E0D3F0DC00023
:100968004008C6004608031DC22C0030BC000030F9
:10097800BB000030BA000030B90008003908BD00DB
:100988003A08BE003B08BF001730BF36BE0CBD0C8E
:10099800890BC92C3D08C0004008C100BA17FF30B8
:1009A800B905FF30BA050030BB053908C2003A085E
:1009B800C3003B08C400C5018E30C602C61F002D07
:1009C8004608803A8F3E0318F22C0030BC000030F5
:1009D800BB000030BA000030B90008000130C5364D
:1009E800C40CC30CC20C890BF32C0130BD003D08AC
:1009F800C6070319192DF22C18304602031C162DB0
:100A08000030BC000030BB000030BA000030B90034
:100A180008000130C235C30DC40DC50D890B0E2D5C
:100A28000130C6024608031D0D2D41080319272D64
:100A3800C209C309C409C509C20A0319C30A0319AB
:100A4800C40A0319C50A4508BC004408BB0043088A
:100A5800BA004208B900080020004F08F300500807
:100A6800F4005108F5005630D2005208F6008F31D4
:100A78008E2785312000D71F622D0030A00000305E
:100A8800A1000030A2004F08A3005008A40051089C
:100A9800A5008F31C4278531031C5A2D0030200052
:100AA800CF000030D0000030D10008000030200016
:100AB800CF008030D0003F30D1000800003057020E
:100AC800153003195602031808004F08B9005008DA
:100AD800BA005108BB008431A924853120003C08A4
:100AE800CA003B08C9003A08C8003908C70087315E
:100AF800A027853120004708D3004808D4004908BA
:100B0800D5005308A0005408A1005508A2004F08BA
:100B1800A3005008A4005108A5008F31C4278531CF
:100B28000318AD2D00302000A3008030A4003F3012
:100B3800A5005308A6005408A7005508A80081314D
:100B4800A82120002308CF002408D0002508D100C0
:100B5800080020005308CF005408D0005508D100E1
:100B680008002000A9002908860087012030010616
:100B7800031DC32D0130A4002408A907B72D290897
:100B880086008701093001060319BE2DA701A801B7
:100B9800A6012908860087012D300106031DD92DDD
:100BA8000130A4002408A607E02D29088600870143
:100BB8002B300106031DE42D0130A4002408A907E9
:100BC80029088600870101088D31FD258531031C20
:100BD8000B2E20002808F4002708F3000A30F5003F
:100BE8000030F6008E3175268531200029088600F0
:100BF800870101087307A40074080318740AA50084
:100C08002408D03EA700FF30253DA800E02D200095
:100C1800260803191B2E2709A4002809A500A40AE1
:100C28000319A50A2408A2002508A300080028081B
:100C3800A3002708A200080076080319282E7508C3
:100C480074047304031D3A2E0030F3000030F400DE
:100C58000030F500080001302000A0002008F60749
:100C68000130F536F40CF30C890B352EFE30750582
:100C78000319542E2F2E01302000A0002008F6075B
:100C88000130F307003003180130F407003003186F
:100C98000130F5070130F536F40CF30C890B4F2EB3
:100CA800FF3075050319652E3F2E02307602031CAE
:100CB800672E0130F6020130F335F40DF50D890B7E
:100CC800602EF41F592E76186F2EFF30F3057F30F3
:100CD800F405FF30F5050310F60C76082000A00097
:100CE800A101A2011030A035A10DA20D890B772E0C
:100CF8002008F3042108F4042208F50477080319EE
:100D08000800F51708002000A8008F315C278631FD
:100D180074082000AB007308AA002808F6007608BB
:100D2800A9002A082B040319CE2E26082B02031D1E
:100D38009F2E25082A020318CE2E79082A071F3964
:100D4800F6007608A7007908F6007608AC002C08AB
:100D580027060319C32E2C08C03E860001308700E1
:100D68000108F6002908860087017608810001300D
:100D7800F6007608A9072C08013E1F39A82E013075
:100D8800A9022908860087018101E801F901F80113
:100D98002808080000300800F7007708031DD92E3E
:100DA80020006B08AC002C08F7007708031DDE2E26
:100DB8000030080020002A08A3002B08A4007708A8
:100DC8008F312D27863120002308AC002C08F70727
:100DD8007708860087010108031DF52EEB01003016
:100DE80008002A08A3002B08A40077088E31FE26E5
:100DF800863120002308AC002408AD0077082C07B2
:100E0800AE002E08EB006B08860087010108031965
:100E1800162F6B088600870181010130AC002C0871
:100E2800EB07172FEB01770808000E30F5000030AC
:100E3800F60020005908F4005808F3008E31752692
:100E4800873174082000A4007308A3008731DD27C8
:100E5800873120002308AC002408AD002508AE0027
:100E68006630A900E630AA003F30AB008431002488
:100E7800873120002908CF002A08D0002B08D1008C
:100E880085313025873120004F08DA005008DB0013
:100E98005108DC005A08B9005B08BA005C08BB00BE
:100EA8008431A92420003A08DE003908DD005E08F4
:100EB800D9005D08D800080000340034003400343C
:100EC8000034003401340034003400340134003478
:100ED800003400340034003400340034003400346A
:100EE8000134003400340034013400340034003458
:100EF8000034003400340034003400340134003449
:100F08000034003400340034003400340034003439
:100F18000034003401340034013400340034003427
:100F28000034003400340034003400340034003419
:100F380001340034003400342000CE018E30CB0060
:100F48004B08CD00CA1FB52FC709C809C909CA0966
:100F5800C70A0319C80A0319C90A0319CA0ACE011C
:100F6800CE0AFF304A050319C52F0130CA36C90C0D
:100F7800C80CC70C890BBA2F0130CB004B08CD0722
:100F8800B52F4708F3004808F4004908F5004D0854
:100F9800CB004B08F6004E08CC004C08F700863111
:100FA800202673082000C7007408C8007508C90007
:100FB80008002000A801A41FE82FA309A409A30A78
:100FC8000319A40AA801A80A2308F3002408F400B6
:100FD800F5018E30A6002608F6002808A700270885
:100FE800F7008631202673082000A3007408A400A7
:060FF8007508A5000800C9
:101BD200FE0012001E00FE0BEA2D0034640080019C
:101BE2000131890BF02D0034F3002000111EF62D77
:101BF200730823009A000800F400F3013A307402DB
:101C02000318092E30307402031C092EF301F30A63
:101C1200730C08008E313E2621008C010F308D009E
:101C220080308E007030990023008C018D012100DC
:101C320095129511151495141515200095018B1602
:101C42000B118B17080073088400740885000008C4
:101C520075060319080074082000A1007308A0008B
:101C6200F30A0319F40A20088400210885001200EF
:101C7200031D242EF301F40108000030F300F400E8
:101C82002030F5000030F600C0308E315926F801C0
:101C9200F9012000E8010C3023009B0090309D00E8
:101CA20020309E0020009112210091160B1708008F
:101CB2002000A0002008F7007708A1000130F502FB
:101CC2000030F63B750A0319760A031908007308F7
:101CD200F700210886000130870077088100013073
:101CE200F7007708A1075F2E2000A001A101731C55
:101CF2007F2E75082000A0077608A13D0130F5353A
:101D0200F60D890B802E0130F436F30C890B852EEB
:101D120073087404031D782E20002108F4002008A3
:101D2200F300080023001908F0007008F1002030C9
:101D3200200068020318B02E7108F0007808C03E37
:101D4200860001308700700881007808013E1F3943
:101D5200F0007008F8000130F0007008E8079112F6
:101D62000800F50075082000A0002008F60076089B
:101D72008600870101080319C32E0130A000200844
:101D8200F607B82E7508A0000030A100A009A1092D
:101D9200A00A0319A10A7608A2000030A3002008B5
:101DA2002207F3002108233DF4000800F700E12E8A
:101DB2000130F5007508F7070130F3070030F43DF4
:101DC200770886008701730884007408850000087C
:101DD200FF3A013E0107F5007508F6007608031D7B
:101DE200F82E7708860087010108031DD92E760890
:101DF200F300F401F31BF40308002000A900A7017B
:101E0200A8010C2F01302000A5002508A9070130E8
:101E1200A7070030A83D2908860087010108031999
:101E2200272F2308F3002408F400290886008701DD
:101E32000108A500A6012508F5002608F6008E3146
:101E420024268E31730874040319032F20002808F6
:101E5200A4002708A30008002000A900A701A801E8
:101E62003B2F01302000A5002508A9070130A70754
:101E72000030A83D29088600870101080319562F62
:101E82002308F3002408F4002908860087010108CA
:101E9200A500A6012508F5002608F6008E312426A5
:101EA2008F3173087404031D322F20002808A40008
:101EB2002708A30008007908200068071F39F500E9
:101EC2007508A000A101A2017908F5007508A40017
:101ED2002408200603198B2F2408C03E86000130F7
:101EE20087000108F5007508A3000130A107003042
:101EF200A23D0A3023060319822F0D302306031D4B
:101F0200872F2208F4002108F30008002408013E6C
:101F12001F39662FF301F401080075087404730475
:101F2200031D9A2F7608860087010030C03FC13F0B
:101F3200080075087F392000A000A101A035A10D7D
:101F42007608860087012008C03F2108C13F740D32
:101F5200740D0139A000A1017608860087012008CE
:101F6200810441312108810476088600870182308C
:101F720081074131FF30813D7F31750880393F381B
:101F8200F500F41308002000A21FDB2F2009F30044
:101F92002109F4002209F500F30A0319F40A0319CE
:101FA200F50A00307307A0000030743DA1008030B4
:101FB200753DA200A51FF12F2309F3002409F400A7
:101FC2002509F500F30A0319F40A0319F50A00308A
:101FD2007307A3000030743DA4008030753DA50056
:101FE2008030A2068030A50625082202031D0800C3
:101FF20024082102031D08002308200208002034BF
:102002002C340034723469346734683474340034E4
:102012006534633468346F3400346C346534663448
:0C20220074340034733465346C340034C2
:020000040001F9
:04000E00E4C9FFDA68
:00000001FF
