:04000000803115280E
:10000800803120007F08F2000B190B11911E122875
:1000180002308C068E317926200091127208FF007A
:10002800090080311728F801F901FA01E601E70112
:10003800E801E901EA01EB01A03084000130850004
:1000480040308731F927803155308400873085006A
:10005800203086000130870040308D31FA2520009D
:1000680080313628031020008D1803140030093D14
:100078002100A600A701A635A70DA635A70DA63510
:10008800A70D031020000D1803140030093D2100AE
:10009800A800A901A835A90DA835A90D03102000AD
:1000A8008D1903140030093D2100AA00AB01AA35BF
:1000B800AB0D031020000D1903140030093D210079
:1000C8002A07AC002B0803182B0AAD0028082C07B8
:1000D800AE0029082D3DAF0026082E07B0002708DE
:1000E8002F3DB1003008D6003108D700DA018E3133
:1000F8001626803120008C100C118C118C122100D6
:100108001A1F832820302000A5000030A600B23036
:1001180086317C268031003A03198628B2308E3128
:10012800D926803174082100D9007308D8005808EE
:10013800FF3EB23E8600870121300106031986285A
:1001480000302000AA009030AB00B2308631C526BE
:1001580080312100A6002608D2000130E1000030DD
:10016800E200003062020430031961020318DC283F
:1001780000302000AA009030AB0000308631C52640
:1001880080312100DB00A6006108D23E860087018D
:10019800260881005B080319DC280130E1070030DC
:1001A800E23D00306202043003196102031CBC28DE
:1001B8005208A6002608E0005308A6002608E30017
:1001C8001330F3009030F40060088731D227803173
:1001D80073087404031D28292100DC01DD0162086D
:1001E800803AA60080302602031DFC2802306102F6
:1001F800031C0B29210063088531AA2580312000C2
:1002080023082100DD00200022082100DC00210055
:1002180057085D06031D122956085C06031D172999
:1002280020008C1622295C085D04031D2029DA01B0
:10023800DA0A20008C12862820008C1200308C1AD2
:1002480001302100DA0086280330F3009030F400F2
:10025800210060088731D227803173087404031D98
:100268004C2903308E310026803121006308A60016
:100278000030A70026082000DF0021002708200002
:10028800E0000030E100E2008231932280318628CC
:100298000E30F3009030F400210060088731D22737
:1002A800803173087404031D70290E308E310026C6
:1002B800803121006308A6000030A700260820002E
:1002C800DF00210027082000E0000030E100E20004
:1002D80083314423803186280930F3009030F400BC
:1002E800210060088731D227803173087404031D08
:1002F80086282100DE01DF0163088E31D92680318E
:10030800740821005F02031D8B2973085E0203181D
:1003180086285E086307A60026088600870101086C
:100328008E310026803101302100DE070030DF3DAC
:10033800802920002308A9002408AA002508AB006A
:1003480003102A0D2B0DAC002C08AF002608A900BD
:100358002708AA002808AB0003102A0D2B0DAC00B3
:100368002C08AE002F080319C5292E082F020318E0
:10037800CC292F03FF3A2E07A90019302902031CA4
:10038800CC292608A3002708A4002808A5000800EF
:100398002E08031908002F082E020318DB292E0344
:1003A800FF3A2F07A9001930290203180800063060
:1003B800A9002908AD00A51BAD17A81B2D17A41768
:1003C800FF30A305FF30A4050030A505A717FF30AF
:1003D800A605FF30A7050030A8052E082F02031830
:1003E800172A0130A635A70DA80D890BF62901306B
:1003F800AE022E082F060319122A0130AD022D086D
:1004080007390319122AF5290130A536A40CA30CC3
:10041800890B092A0130A9002908AF072F082E06E1
:1004280003193C2A082A2F082E0203183C2A0130F7
:10043800A335A40DA50D890B1C2A0130AF022E0887
:100448002F060319382A0130AD022D080739031980
:10045800382A1B2A0130A836A70CA60C890B2F2A8C
:100468000130A9002908AE072F082E06031D2E2AE1
:10047800AD1F4E2AFF30A306FF30A406FF30A506A5
:100488000130A307003003180130A4070030031817
:100498000130A5072D1F602AFF30A606FF30A706EA
:1004A800FF30A8060130A607003003180130A7075F
:1004B800003003180130A807AD012308A607240857
:1004C800A73D2508A83DA81F7B2AFF30A606FF30B8
:1004D800A706FF30A8060130A60700300318013030
:1004E800A707003003180130A807AD01AD0A260898
:1004F800F3002708F4002808F5002F08A9002908A8
:10050800F6002D08AA002A08F70086311526730878
:100518002000A3007408A4007508A50008002100A5
:10052800A201A30120006008D9005F08D800873124
:100538000E278231200059082100A1002000580808
:100548002100A00021002008EC3E2000E300FF303D
:100558002100213D2000E400640821002302031D3E
:10056800B92A200063082100220203180800A40108
:10057800A5012508803A2000E30080306302031DAE
:10058800C82A0430210024020318A62A21002408BE
:100598002000E3000230E335FF3E031DCF2A633518
:1005A800403E860001308700403FE400413FE500BF
:1005B800641CE12A20000C14E32A20000C102100FE
:1005C80024082000E3000230E335FF3E031DE82A3B
:1005D8006335023E403E860001308700403FE4001C
:1005E800413FE500641CFB2A20000C16FD2A200070
:1005F8000C12210024082000E3000230E335FF3EFE
:10060800031D022B6335043E403E860001308700FF
:10061800403FE400413FE500641C152B20008E1488
:10062800172B20008E10210024082000E300023040
:10063800E335FF3E031D1C2B6335063E403E860016
:1006480001308700403FE400413FE500641C2F2B48
:1006580020000E15312B20000E110830E400C9309F
:10066800E300E30B352BE40B352B0032013021007E
:10067800A2070030A33D0130A4070030A53DBD2AE4
:100688002100A201A30120006008D9005F08D8005A
:1006980087310E278331200059082100A10020004E
:1006A80058082100A00021002008EC3E2000E300AB
:1006B800FF302100213D2000E400640821002302CE
:1006C800031D6A2B2000630821002202031808007A
:1006D800A401A5012508803A2000E30080306302C8
:1006E800031D792B0430210024020318572B210005
:1006F80024082000E3000230E335FF3E031D802B71
:100708006335203E860001308700403FE400413FCA
:10071800E500641C922B20000C14942B20000C1074
:10072800210024082000E3000230E335FF3E031DCA
:10073800992B6335023E203E860001308700403FFA
:10074800E400413FE500641CAC2B20000C16AE2BE6
:1007580020000C12210024082000E3000230E335B9
:10076800FF3E031DB32B6335043E203E8600013057
:100778008700403FE400413FE500641CC62B200091
:100788008E14C82B20008E10210024082000E300BE
:100798000230E335FF3E031DCD2B6335063E203E78
:1007A800860001308700403FE400413FE500641CBB
:1007B800E02B20000E15E22B20000E110830E4007B
:1007C800C930E300E30BE62BE40BE62B00320130E3
:1007D8002100A2070030A33D0130A4070030A53D49
:1007E8006E2B20002C08AF002D08B0002E08B10099
:1007F8000310300D310DB2003208B7003708031D61
:100808000C2C0030A9000030AA000030AB00080012
:100818002908AF002A08B0002B08B1000310300DDA
:10082800310DB2003208B8003808031D222C003000
:10083800A9000030AA000030AB0008000030B40066
:100848000030B5000030B60089303807AF002F08F7
:10085800B7022C08AF002D08B0002E08B1001030E8
:10086800B136B00CAF0C890B342C2F08B20032080B
:10087800B8002908AF002A08B0002B08B1001030D2
:10088800B136B00CAF0C890B442C2F08B2003208DB
:10089800B8068030AF002F08B805AD17FF30AC059B
:1008A800FF30AD050030AE05AA17FF30A905FF30AF
:1008B800AA050030AB051830AF002F08B30001308F
:1008C800B435B50DB60D890B642C2B082E02031D0B
:1008D800732C2A082D02031D732C29082C02031CD3
:1008E8007C2C2908AC022A08AD3B2B08AE3B3414FB
:1008F8000130AC35AD0DAE0D890B7D2C0130B30246
:10090800031D632C3408F3003508F4003608F5009D
:100918003708AF002F08F6003808B0003008F70095
:100928008631152673082000A9007408AA007508E6
:10093800AB00080020003908BD003A08BE003B089B
:10094800BF0003103E0D3F0DC0004008C60046081A
:10095800031DB72C0030BC000030BB000030BA00CB
:100968000030B90008003908BD003A08BE003B084D
:10097800BF001730BF36BE0CBD0C890BBE2C3D081E
:10098800C0004008C100BA17FF30B905FF30BA05EA
:100998000030BB053908C2003A08C3003B08C40050
:1009A800C5018E30C602C61FF52C4608803A8F3E18
:1009B8000318E72C0030BC000030BB000030BA0040
:1009C8000030B90008000130C536C40CC30CC20C95
:1009D800890BE82C0130BD003D08C60703190E2D10
:1009E800E72C18304602031C0B2D0030BC000030E9
:1009F800BB000030BA000030B90008000130C23531
:100A0800C30DC40DC50D890B032D0130C602460860
:100A1800031D022D410803191C2DC209C309C4096D
:100A2800C509C20A0319C30A0319C40A0319C50A66
:100A38004508BC004408BB004308BA004208B90096
:100A4800080020004F08F3005008F4005108F50092
:100A58005630D2005208F6008F318E27853120009B
:100A6800D71F572D0030A0000030A1000030A20091
:100A78004F08A3005008A4005108A5008F31C427CF
:100A88008531031C4F2D00302000CF000030D000EE
:100A98000030D100080000302000CF008030D000A6
:100AA8003F30D100080000305702153003195602B4
:100AB800031808004F08B9005008BA005108BB00D5
:100AC80084319E24853120003C08CA003B08C900B7
:100AD8003A08C8003908C7008731952785312000B2
:100AE8004708D3004808D4004908D5005308A00097
:100AF8005408A1005508A2004F08A3005008A400FC
:100B08005108A5008F31C42785310318A22D003064
:100B18002000A3008030A4003F30A5005308A600A1
:100B28005408A7005508A80081319D2120002308FA
:100B3800CF002408D0002508D10008002000530861
:100B4800CF005408D0005508D10008002000A900A3
:100B580029088600870120300106031DB82D0130C1
:100B6800A4002408A907AC2D2908860087010930AC
:100B780001060319B32DA701A801A60129088600BB
:100B880087012D300106031DCE2D0130A400240855
:100B9800A607D52D2908860087012B300106031DDD
:100BA800D92D0130A4002408A90729088600870147
:100BB80001088E3108268531031C002E20002808E4
:100BC800F4002708F3000A30F5000030F6008E31F3
:100BD8005B268531200029088600870101087307F4
:100BE800A40074080318740AA5002408D03EA700BE
:100BF800FF30253DA800D52D200026080319102E0A
:100C08002709A4002809A500A40A0319A50A24088D
:100C1800A2002508A30008002808A3002708A200AE
:100C28000800760803191D2E750874047304031D43
:100C38002F2E0030F3000030F4000030F5000800DB
:100C480001302000A0002008F6070130F536F40C2A
:100C5800F30C890B2A2EFE3075050319492E242E14
:100C680001302000A0002008F6070130F30700300B
:100C780003180130F407003003180130F50701307C
:100C8800F536F40CF30C890B442EFF307505031967
:100C98005A2E342E02307602031C5C2E0130F602E6
:100CA8000130F335F40DF50D890B552EF41F4E2E3A
:100CB8007618642EFF30F3057F30F405FF30F50514
:100CC8000310F60C76082000A000A101A201103044
:100CD800A035A10DA20D890B6C2E2008F304210864
:100CE800F4042208F504770803190800F51708002A
:100CF8002000A8008F315C27863174082000AB00E3
:100D08007308AA002808F6007608A9002A082B0408
:100D18000319C32E26082B02031D942E25082A0228
:100D28000318C32E79082A071F39F6007608A7008A
:100D38007908F6007608AC002C0827060319B82EA7
:100D48002C08C03E8600013087000108F6002908FB
:100D580086008701760881000130F6007608A90729
:100D68002C08013E1F399D2E0130A9022908860052
:100D780087018101E801F901F8012808080000301D
:100D88000800F7007708031DCE2E20006B08AC0082
:100D98002C08F7007708031DD32E00300800200028
:100DA8002A08A3002B08A40077088F312D27863145
:100DB80020002308AC002C08F70777088600870175
:100DC8000108031DEA2EEB01003008002A08A300E1
:100DD8002B08A40077088E31FE26863120002308D0
:100DE800AC002408AD0077082C07AE002E08EB00F5
:100DF8006B0886008701010803190B2F6B08860012
:100E0800870181010130AC002C08EB070C2FEB01A6
:100E1800770808000E30F5000030F6002000590869
:100E2800F4005808F3008E315B26873174082000DF
:100E3800A4007308A3008E31B72687312000230849
:100E4800AC002408AD002508AE006630A900E630E5
:100E5800AA003F30AB008331F523873120002908F1
:100E6800CF002A08D0002B08D100853125258731ED
:100E780020004F08DA005008DB005108DC005A084F
:100E8800B9005B08BA005C08BB0084319E242000CE
:100E98003A08DE003908DD005E08D9005D08D80090
:100EA80008000034003400340034003400340134C5
:100EB8000034003400340134003400340034003489
:100EC8000034003400340034003401340034003479
:100ED8000034013400340034003400340034003469
:100EE8000034003400340134003400340034003459
:100EF8000034003400340034003400340034013449
:100F08000034013400340034003400340034003438
:100F18000034003400340034003401340034003428
:100F280000342000CE018E30CB004B08CD00CA1F04
:100F3800AA2FC709C809C909CA09C70A0319C80ACB
:100F48000319C90A0319CA0ACE01CE0AFF304A0595
:100F58000319BA2F0130CA36C90CC80CC70C890B43
:100F6800AF2F0130CB004B08CD07AA2F4708F3005D
:100F78004808F4004908F5004D08CB004B08F60076
:100F88004E08CC004C08F70086311526730820005F
:100F9800C7007408C8007508C9000800F700DC2FEE
:100FA8000130F5007508F7070130F3070030F43D0C
:100FB8007708860087017308840074088500000894
:100FC800FF3A013E0107F5007508F6007608031D93
:100FD800F32F7708860087010108031DD42F7608B0
:100FE800F300F401F31BF4030800640080010131ED
:060FF800890BFA2F003402
:101BF400FE0012001E00FE0BFB2D0034F30020003B
:101C0400111E012E730823009A000800F400F3014A
:101C14003A3074020318142E30307402031C142E4C
:101C2400F301F30A730C08008E31982621008C010D
:101C34000F308D0080308E00F030990023008C012D
:101C44008D018B1708007308840074088500000850
:101C540075060319080074082000A1007308A00089
:101C6400F30A0319F40A20088400210885001200ED
:101C7400031D252EF301F40108002000A000200814
:101C8400F7007708A1000130F5020030F63B750A31
:101C94000319760A031908007308F700210886005F
:101CA40001308700770881000130F7007708A10729
:101CB400452E2000A001A101731C652E750820008B
:101CC400A0077608A13D0130F535F60D890B662E87
:101CD4000130F436F30C890B6B2E73087404031D66
:101CE4005E2E20002108F4002008F30008002300E1
:101CF4001908F0007008F100203020006802031871
:101D0400962E7108F0007808C03E860001308700E6
:101D1400700881007808013E1F39F0007008F8004F
:101D24000130F0007008E807911208000030F30059
:101D3400F4002030F5000030F600C0308E313F262C
:101D4400F801F9012000E8010C3023009B009030D9
:101D54009D0020309E0020009112210091160B1747
:101D6400111611162000111208002000A801A41F4A
:101D7400C22EA309A409A30A0319A40AA801A80A44
:101D84002308F3002408F400F5018E30A600260889
:101D9400F6002808A7002708F700863115267308DF
:101DA4002000A3007408A4007508A5000800F5002D
:101DB40075082000A0002008F60076088600870138
:101DC40001080319EA2E0130A0002008F607DF2ECF
:101DD4007508A0000030A100A009A109A00A0319F8
:101DE400A10A7608A2000030A30020082207F3000D
:101DF4002108233DF40008002000A900A701A80140
:101E04000C2F01302000A5002508A9070130A707E1
:101E14000030A83D29088600870101080319272FEF
:101E24002308F3002408F400290886008701010828
:101E3400A500A6012508F5002608F6008E31252602
:101E44008E31730874040319032F20002808A4009A
:101E54002708A30008002000A900A701A8013B2F20
:101E640001302000A5002508A9070130A70700308C
:101E7400A83D29088600870101080319562F230865
:101E8400F3002408F4002908860087010108A5004E
:101E9400A6012508F5002608F6008E3125268F3187
:101EA40073087404031D322F20002808A400270897
:101EB400A30008007908200068071F39F500750899
:101EC400A000A101A2017908F5007508A400240866
:101ED400200603198B2F2408C03E8600013087009A
:101EE4000108F5007508A3000130A1070030A23DE8
:101EF4000A3023060319822F0D302306031D872F72
:101F04002208F4002108F30008002408013E1F39C8
:101F1400662FF301F4010800750874047304031DAB
:101F24009A2F7608860087010030C03FC13F080021
:101F340075087F392000A000A101A035A10D760805
:101F4400860087012008C03F2108C13F740D740D2D
:101F54000139A000A10176088600870120088104C8
:101F64004131210881047608860087018230810787
:101F74004131FF30813D7F31750880393F38F500AC
:101F8400F41308002000A21FDB2F2009F30021090D
:101F9400F4002209F500F30A0319F40A0319F50AF7
:101FA40000307307A0000030743DA1008030753DFF
:101FB400A200A51FF12F2309F3002409F400250929
:101FC400F500F30A0319F40A0319F50A003073073C
:101FD400A3000030743DA4008030753DA50080301E
:101FE400A2068030A50625082202031D0800240845
:101FF4002102031D080023082002080020342C3489
:1020040000347234693467346834743400346534A9
:10201400633468346F3400346C3465346634743437
:0A2024000034733465346C3400346A
:020000040001F9
:04000E00E4C9FFDA68
:00000001FF
